:020000040002F8
:1070000040630020D9740200E1740200F9720200AA
:10701000E5740200E7740200E97402000000000059
:10702000000000000000000000000000EB740200FF
:10703000ED74020000000000EF740200F174020021
:10704000ED7A0200F3740200C57D0200F3740200C1
:10705000F3740200F3740200B9770200F3740200C3
:10706000F3740200F3740200F3740200F37402007C
:10707000F3740200F3740200F3740200F37402006C
:10708000F3740200F97A0200F3740200F374020050
:10709000F3740200F37402009D7B0200F37402009B
:1070A000F3740200F3740200F3740200F37402003C
:1070B000F3740200F37402000000000000000000FE
:1070C000F3740200F3740200F3740200F37402001C
:1070D000F3740200F3740200F3740200D57D020021
:1070E000F3740200F3740200F37402000000000065
:1070F00000000000F374020000000000F3740200BE
:10710000000000000000000000000000000000007F
:10711000000000000000000000000000000000006F
:10712000000000000000000000000000000000005F
:10713000000000000000000000000000000000004F
:10714000000000000000000000000000000000003F
:10715000000000000000000000000000000000002F
:10716000000000000000000000000000000000001F
:10717000000000000000000000000000000000000F
:1071800000000000000000000000000000000000FF
:1071900000000000000000000000000000000000EF
:1071A00000000000000000000000000000000000DF
:1071B00000000000000000000000000000000000CF
:1071C00000000000000000000000000000000000BF
:1071D00000000000000000000000000000000000AF
:1071E000000000000000000000000000000000009F
:1071F000000000000000000000000000000000008F
:10720000DFF80CD000F00CFA0048004709CF02006C
:107210004063002030B4044654E8000F0D4644E8B3
:107220000053002BF8D1156030BC704730B40446D1
:1072300054E8000F40EA010544E80053002BF7D161
:10724000156030BC704730B4044654E8000F00EAC3
:10725000010544E80053002BF7D1156030BC70479E
:1072600030B4044654E8000F80EA010544E80053B6
:10727000002BF7D1156030BC704730B4044654E899
:10728000000F00EB010544E80053002BF7D1156017
:1072900030BC704730B4044654E8000FA0EB010541
:1072A00044E80053002BF7D1156030BC704770B430
:1072B00004464FF0000054E8006F0D68AE4207BF6F
:1072C00044E80023012044E800630E60002B1CBF4B
:1072D0000020F0E770BC704730B4044654E8000F5B
:1072E00088422CBF451A054644E80053002BF5D1CF
:1072F000156030BC70470000094B1EF0040F1CBF26
:10730000EFF309801847EFF308800649064A8842E0
:1073100001D8904202D88D464FF000001847000077
:1073200079780200406300204043002030B450E8E8
:10733000012F93B2C48923448489A34228BF1B1B15
:107340000489A34202BFBFF32F8F002007E0C3EAE6
:10735000020340E80134002CE9D14FF001000A603B
:1073600030BC704750E8012FC2EA024240E80121D8
:107370000029F7D1704730B450E8022F1FFAA2F36A
:10738000C488A34202BFBFF32F8F00200DE0C48941
:1073900023448489A34228BF1B1BC2EA034340E85D
:1073A0000234002CE8D14FF001000A6030BC704775
:1073B00050E8022FC2EA224240E802210029F7D118
:1073C0007047034653E8022FD988B2EB324F4FF093
:1073D000000017BF92B241EA014142EA014104E0D4
:1073E0005A68B2EB324F08BF012043E80212002A6C
:1073F000E8D1704730B4044654E8000F0D4644E825
:107400000053002BF8D1156030BC704730B40446EF
:1074100054E8000F40EA010544E80053002BF7D17F
:10742000156030BC704730B4044654E8000F00EAE1
:10743000010544E80053002BF7D1156030BC7047BC
:1074400030B4044654E8000F80EA010544E80053D4
:10745000002BF7D1156030BC704730B4044654E8B7
:10746000000F00EB010544E80053002BF7D1156035
:1074700030BC704730B4044654E8000FA0EB01055F
:1074800044E80053002BF7D1156030BC704770B44E
:1074900004464FF0000054E8006F0D68AE4207BF8D
:1074A00044E80023012044E800630E60002B1CBF69
:1074B0000020F0E770BC704730B4044654E8000F79
:1074C00088422CBF451A054644E80053002BF5D1ED
:1074D000156030BC704700000648804706480047EA
:1074E000FEE7FEE7FEE7FEE7FEE7FEE7FEE7FEE774
:1074F000FEE7FEE7B57B020001720200202A04DBF2
:10750000203A00FA02F1002070479140C2F12003B6
:1075100020FA03F319439040704700000048704779
:107520001C39030040EA01039B0703D009E008C9A6
:10753000121F08C0042AFAD203E011F8013B00F838
:10754000013B521EF9D27047D2B201E000F8012B84
:10755000491EFBD270470022F6E710B513460A46D3
:1075600004461946FFF7F0FF204610BDCAB2401E80
:1075700010F8011F8A4202D00029F9D1002070477B
:10758000421C10F8011B0029FBD1801A70470346EA
:1075900011F8012B00F8012B002AF9D11846704789
:1075A00030B505460020034600E05B1C934205D23F
:1075B000EC5CC85C201A01D1002CF6D130BD2DE95D
:1075C000F05F0546002092469B4688460646814667
:1075D00040241BE0284641464746224600F032F848
:1075E00053465A46C01A914110D3114618462246B6
:1075F000FFF784FF2D1A67EB01084F462246012052
:107600000021FFF77BFF17EB00094E41201EA4F17C
:107610000104DFDC484631462A464346BDE8F09F78
:10762000064C074D06E0E06840F0010394E80700CF
:1076300098471034AC42F6D3FFF7E6FDD44603007A
:10764000F4460300202A04DB203A21FA02F000214C
:10765000704721FA02F3D040C2F120029140084362
:107660001946704770B58C1810F8015B15F00703C8
:1076700001D110F8013B2A1106D110F8012B03E0CB
:1076800010F8016B01F8016B5B1EF9D12B0705D4D3
:107690000023521E0DD401F8013BFAE710F8013B1C
:1076A000CB1A921C03E013F8015B01F8015B521E38
:1076B000F9D5A142D8D3002070BD000038B5012112
:1076C0001A481B4A1278815400241BE01748005DB9
:1076D000012810D1174850F824000090684606F0A1
:1076E0000BFD05460121009A01FA02F0C5F80805D4
:1076F00000BF00BF04E00F4951F8240006F0EEFC83
:10770000601CC4B2072CE1DB00210848084A12784B
:10771000815407480078401C0549087008460078E5
:10772000072801DB0020087038BD0000672B00200F
:107730006E2B002010330300FEB506460C4617469C
:1077400025460D480DA110A2CDE900210290D5E9F2
:1077500000310F4A08680FA100F056FC1149124B86
:10776000C91AC908032343EA014010A12A6806F098
:10777000FBFF0120FEBD00008A33030056312E308E
:10778000302E303000000000502032303000000039
:1077900064330300257325735B25732D25735D25E5
:1077A000730000009447030004470300436F6D6DAE
:1077B000616E64203A2573002DE9FC470026002005
:1077C000009001904FF480770125002410E03846A6
:1077D00006F0C6FC40B100BF25480068284018B13B
:1077E000384606F0AFFC2E436D00381D87B2641C8E
:1077F000082CECD34FF4BE7006F0B2FC50B14FF43D
:10780000BE7006F09FFC46F000466A46022100204A
:1078100006F04AFCF0B210B3012500241DE005EA91
:107820000600C0B100BF134850F82400C0F3052083
:10783000814600BF0F4850F82400C0F30140824643
:10784000204604F0DBF88046B8F1000F02D0514624
:107850004846C04700BF6D00641C082CDFD306F00B
:10786000004010B1684609F0D9FBBDE8FC87000074
:1078700004630040106500401CB5074600BF07F0D8
:1078800057F800BF00BF06F061FD0028FBD100BF24
:1078900000BF3C4642480668002C29D04149424B73
:1078A000C91AC908012343EA014040A1A26906F0B0
:1078B0005BFFD4E90201CDE900013A493A4D491B89
:1078C000C908012545EA01403EA1D4E9002306F09C
:1078D0007BFFE06900903349334D491BC9080125FE
:1078E00045EA014045A1D4E9042306F059FF09E027
:1078F0002C492D4A891AC908012242EA014049A1AE
:1079000006F028FF2648001D006800F0020048B17C
:107910002449254A891AC908012242EA01404E49F0
:1079200006F018FF002515E00120A840304080B186
:107930004A4850F8250060B1484951F825201949B6
:10794000194BC91AC908012343EA014044A106F0B2
:107950000BFF6D1C1A2DE7D306F0800060B11049B3
:107960000C310A680F49104BC91AC908012343EAB0
:1079700001403EA106F0F8FE06F4004060B108495F
:1079800010310A680749084BC91AC908012343EA9C
:1079900001403EA106F0E8FE384600F085F8000000
:1079A00028ED00E0744703000447030048415244B7
:1079B000204641554C542061742030782530385889
:1079C00000000000202052303A2020307825303846
:1079D00058202052313A2020307825303858202045
:1079E00052323A2020307825303858202052333A0D
:1079F00020203078253038580000000020205231F7
:107A0000323A2030782530385820204C523A202005
:107A100030782530385820205053523A203078257D
:107A200030385800537461636B2076696F6C6174F1
:107A3000696F6E3A20737461636B20706F696E7446
:107A40006572206F75747369646520737461636B0C
:107A500020617265612E0000883B0300542C0020D9
:107A600043617573653A2025732E00004D656D4D99
:107A7000616E616765204661756C74204164647253
:107A80006573733A2030782530385800427573207A
:107A90004661756C7420416464726573733A20307A
:107AA000782530385800000000BF00BF00BF00BF7D
:107AB00000BFBFF34F8F00BF00BF00BF0948006881
:107AC00000F4E06008490843001D0649086000BF53
:107AD00000BF00BFBFF34F8F00BF00BF00BF00BF9C
:107AE00000BFFDE70CED00E00000FA0510B507F05F
:107AF00021FF07F0FBFD10BD10B5034A1068034AD3
:107B00001168884710BD00004C2C0020482C002034
:107B100010B500F0A5F910BD2DE9F04707468846DD
:107B20001646C24607EB47011B4800EBC109D9F8CE
:107B3000140020B1012811D0022826D11EE04846A9
:107B400000F0C6F90546B54201D2002405E03446EE
:107B500032465146484600F01DFA18E0484600F00B
:107B6000B7F90546B54201D2284600E03046044642
:107B700022465146484600F00DFA08E0324651468A
:107B8000484600F0CEF9044601E0002400BF00BFE3
:107B90002046BDE8F0870000D040002010B507F077
:107BA00071FA10BD01480249086070470090D00387
:107BB000282D002010B505F07BFC40B10020744951
:107BC00008604FF08041C1F810017249086005F06B
:107BD00091FC002855D070480068704908606E48D4
:107BE000001D0068091D08606B4808300068091D09
:107BF000086069480C300068091D0860664810304C
:107C00000068091D0860644814300068091D086098
:107C10006148183000686149203108605E481C30B6
:107C20000068091D08605C4820300068091D086074
:107C3000594824300068091D0860574828300068FA
:107C4000091D086054482C300068091D086052481E
:107C5000303000685149403108604F483430006886
:107C6000091D08604C4838300068091D08604A4802
:107C70003C300068091D0860474840300068091D15
:107C8000086005F059FC10B145484649086005F008
:107C9000DBFA10B1FB204449086005F0F7FA38B16F
:107CA000424801784248006861F303004049086097
:107CB00005F00EFB18B14FF400703E49086005F066
:107CC00029FB40B13C48006800F0010018B16FF09A
:107CD0000100394908603948006840F470003749AC
:107CE000086000BF00BF00BFBFF34F8F00BF00BFE1
:107CF00000BF00BF00BF00BFBFF36F8F00BF00BF5A
:107D000000BF00BF05F0B2FB20B12D48006821493B
:107D10002031086000BF2A48001D006800F0010003
:107D200090B1012008F090FC2548001D006820F06B
:107D300001004FF01021C1F80C0208F08FFC002068
:107D400008F082FC00F074F91D480838006800F063
:107D5000004028B91A48001F006800F00040A0B198
:107D6000012008F071FC122015490839086008F05C
:107D700075FC12214FF01020C0F8041208F06EFCC0
:107D8000002008F061FC00F053F9FFF70BFF10BD75
:107D90000C010040380500400404001020C50040DC
:107DA000488103008C56004018F50040580200102E
:107DB000E40E0040409602400004004088ED00E0E0
:107DC0000812001010B502490868804710BD000075
:107DD0009C2B00202DE9F04700BF1F480068074694
:107DE0003E46002414E096FAA6F0B0FA80F5284644
:107DF0004FF4807101EB80018946484607F0A0FBF3
:107E000010B10120A84004430120A840864300BFD0
:107E1000002EE8D104F4000008B1012000E00020A9
:107E2000804624F400040BE094FAA4F0B0FA80F544
:107E30000A4951F8250080470120A840844300BF2B
:107E4000002CF1D10AF024FDB8F1000F02D0034953
:107E5000C86D8047BDE8F087047302401834030002
:107E600010B5124C02202061606111A0A06113497D
:107E7000E1614FF4007121620021A1626162E1625F
:107E80000BA0A0640E49E164102121650021A165C9
:107E90006165E1650BA1E01DFFF779FB0AA12046B2
:107EA000FFF775FB2020A07110BD0000B840002036
:107EB0005465726D696E616C0000000030410020F5
:107EC0003043002052545400534547474552000068
:107ED00010B501460A69CB689A4204D88C68641EC2
:107EE000E41AA01801E0D41A601E10BD30B5014696
:107EF0000A46C81701EBD0604011800000F1E02075
:107F0000D0F800010B46CC1701EBD4646411A1EB4F
:107F100044150124AC40204008B1012030BD0020B0
:107F2000FCE72DE9F0470446894617464FF0000A62
:107F3000E56800BFD4F81080A84503D9A8EB050078
:107F4000461E04E0A5EB0800401CA1680E1AA068BC
:107F5000401BB04201D9304601E0A068401B0646F4
:107F6000BE4201D2304600E03846064661684819F4
:107F700032464946FFF7D6FAB244B144BF1B3544F6
:107F8000A068A84200D10025E560002FD2D150465C
:107F9000BDE8F0872DE9F047044689461546E668B6
:107FA000A068871BAF4208D9616888192A464946EC
:107FB000FFF7B8FA7019E06010E0B84661688819F8
:107FC00042464946FFF7AEFAA5EB070809EB070161
:107FD00042466068FFF7A6FAC4F80C80BDE8F08757
:107FE0000FB41CB50A46521ECDE9000207A9054B85
:107FF0006A46069800F06EF8009A002111701CBCC9
:108000005DF814FB378502000FB4084B10B504A9C6
:1080100002AA039800F05EF8044602A9002000F0CE
:1080200095FA204610BC5DF814FB00004D85020057
:1080300000BF00BF00BFBFF34F8F00BF00BF00BF36
:108040000948006800F4E06008490843001D06493B
:10805000086000BF00BF00BFBFF34F8F00BF00BF6D
:1080600000BF00BF00BFFDE70CED00E00000FA0517
:1080700002E008C8121F08C1002AFAD170477047F1
:10808000002001E001C1121F002AFBD1704700004F
:108090000146202908DA012088400A4A104008B128
:1080A000012070470020FCE7402909DAA1F12000F7
:1080B000012202FA00F008B10120F2E70020F0E707
:1080C0000120EEE7FC06FFBD00BFEFF3108108467C
:1080D00072B670472DE9FF4F8DB00F46054600265A
:1080E00006E025280BD0DDE90F1290476D1C761CA9
:1080F00028780028F5D111B03046BDE8F08F002473
:10810000A246A1460122EC4900E0044315F8013FD4
:10811000203B02FA03F00842F7D128782A2810D031
:108120006FF02F022878A0F13001092914D80AEB4A
:108130008A0102EB410144F0020400EB010A6D1CCC
:10814000F0E701CF5FEA000A03D544F40054CAF116
:10815000000A44F002046D1C28782E2817D115F867
:10816000010F44F004042A280ED06FF02F02287863
:10817000A0F1300109290AD809EB890102EB41017C
:1081800000EB01096D1CF2E757F8049B6D1C287881
:108190006C280FD006DC4C2817D068280DD06A2830
:1081A00014D104E0742810D07A280FD10DE044F4E3
:1081B00000140AE044F4801401E044F440146978A7
:1081C000814202D104F580146D1C6D1C2A786E2A40
:1081D0001FD00CDC632A31D004DC002A8BD0582A53
:1081E00011D1A3E0642A68D0692A0CD165E0732A12
:1081F0002ED004DC6F2A73D0702A04D19BE0752A3C
:108200006FD0782A6ED01046DDE90F129047761CA9
:1082100050E1C4F30250022806D0032809D00428F4
:1082200001CF09D0066045E101CFF117C0E9006137
:1082300040E101CF06803DE106703BE117F8040BF9
:108240008DF8000000208DF80100EB46012003E0CE
:1082500057F804BB4FF0FF3061074FF0000102D424
:108260000DE008F10101884649450FDA8045F8DB49
:108270001BF808100029F4D108E008F10101884634
:108280008142FADB1BF808100029F6D1DDE90F2343
:10829000AAEB08008146214600F036F9304400EB95
:1082A000080604E0DDE90F121BF8010B9047B8F156
:1082B0000108F7D221464846F7E00A21C4F30253E9
:1082C0004FF0000B0891022B04D001CFC117032BF4
:1082D00009D00AE0FF1D27F00707F7E8020108E0D0
:1082E00032E01FE020E000B2C117042B01D140B200
:1082F000C117031E71F1000307DA4FF0000CD0EB39
:108300000C006CEB01012D2302E0230504D52B2387
:108310008DF82430012303E0E30701D02023F7E7A1
:10832000984658E00A2110E010210EE010204FF08E
:10833000000B08900CE010214FF0000B44F00404F7
:108340004FF00809089103E008214FF0000B089155
:10835000C4F30253022B04D001CF0021032B06D01B
:1083600006E0FF1D27F00707F7E8020103E080B2EF
:10837000042B00D1C0B24FF0000823072BD5702A80
:1083800007D0DDF820C08CF0100C5CEA0B0C05D097
:108390000EE040238DF82430012308E050EA010369
:1083A00006D030238DF824308DF8252002239846FE
:1083B000DDF820C08CF0080C5CEA0B0C0BD150EA05
:1083C000010301D1630706D530238DF824304FF027
:1083D0000108A9F10109582A04D038A20B9208AA71
:1083E0000A920BE03AA2F9E75B46089AFFF7E7F832
:1083F0000B9B9B5C0A9A521E0A92137050EA010270
:10840000F2D10A98ADEB000000F1200B600702D515
:1084100024F4803401E04FF00109D94502DDA9EBD5
:108420000B0000E0002000EB0B0141440890AAEB98
:10843000010AE00306D4DDE90F232146504600F08F
:1084400063F806444FF0000908E009A911F8090093
:10845000DDE90F12904709F10109761CC145F4DBF3
:10846000E0030CD5DDE90F232146504600F04CF81F
:10847000064404E0DDE90F1230209047761C08998D
:10848000481E08900029F5DC08E00A980A9900784F
:10849000491C0A91DDE90F129047761CBBF10001DF
:1084A000ABF1010BF1DC21465046DDE90F2300F072
:1084B00019F806446D1C1BE60928010030313233DF
:1084C0003435363738396162636465660000000010
:1084D00030313233343536373839414243444546FA
:1084E000000000002DE9F041044600251E46174615
:1084F000880404D405E039462020B0476D1C641E72
:10850000F9D52846BDE8F0812DE9F0410446002563
:108510001E469046C80301D5302700E02027880476
:1085200004D505E041463846B0476D1C641EF9D5B8
:108530002846BDE8F0814A68002A06D00A68531C24
:108540000B6010704868401E486070470A68531CF2
:108550000B60107070470246002104E0505C08B1C7
:1085600001207047491C0629F8D30020F9E770B5AF
:1085700004460D4604F22740FFF7EDFF0646012DA5
:1085800006D0022D0DD0032D11D0042D19D113E0EA
:10859000A07928B194F8240010B90EB1012070BD63
:1085A00000BFE07910B10EB10220F8E700BF207AD9
:1085B00008B10320F3E700BF607A08B10420EEE7BA
:1085C00000BF0020EBE70146481C052290FBF2F3B8
:1085D00002FB1300C0B27047014691F82420012A23
:1085E00001D1EE2000E01F207047000030B5ABB095
:1085F000AC216846FEF7AFFF02208DF80000002096
:108600008DF8020005208DF803000121ADF84C1013
:108610000F49149101218DF87C104021229144F2E0
:10862000506123910B48299069460B4801F0E1FB0A
:10863000044600BF254625B100BF284600F07EF85D
:1086400000BF00BF0121044801F0D0FB2BB030BDBA
:10865000602B00206D060300D02E002070B5032192
:10866000064801F068FC044600BF254625B100BF5E
:10867000284600F063F800BF00BF70BDD02E002078
:1086800072B600BF06F054F900BF00BF05F05EFEF1
:108690000028FBD100BF00BF1D491E4A891AC90826
:1086A000012242EA01401CA106F054F800BF1D4817
:1086B000006800F0010000B100BE00BF1449154A77
:1086C000891AC908022242EA014017A106F042F8BD
:1086D00000BF00BF00BF00BF00BFBFF34F8F00BF90
:1086E00000BF00BF0F48E438006800F4E0601249A2
:1086F0000843001D0B49E439086000BF00BF00BFFC
:10870000BFF34F8F00BF00BF00BF00BF00BFFDE73A
:108710009447030004470300466174616C2065724E
:10872000726F7200F0ED00E053797374656D207222
:1087300065736574000000000000FA053EB504464C
:10874000002000900190029002946A46002144F2B9
:108750000100FFF795FF3EBD10B5024803F08CFC09
:1087600010BD0000C02B002030B503460C460AB9EE
:10877000072030BD19684FF0FF358D60CD604A612C
:10878000012C01D1012000E0002008610020F0E769
:1087900038B5134800680090082358221149124840
:1087A000006804F0F6FE04460CB1204638BD0F4ABE
:1087B00069460F4803F066FC04460CB12046F5E715
:1087C00001210B4803F004FD01230A4A1946084819
:1087D00003F024FC0120084908702046E6E7000069
:1087E000F8340300B4370020E8340300CF1303004B
:1087F000C02B0020FFFF7F00CC2B00202DE9F84389
:1088000006460D469046344600200090684601F02A
:1088100043F94FF0FF33D4E9021059405840014367
:1088200008D104F053F9401941F10001C4E90201F3
:10883000012700E000279DF8000001F033F917B987
:108840000020BDE8F883C4F81880206900B12561D4
:108850002146002009F03CFEF3E7F8B50446254622
:1088600000200090684601F017F94FF0FF33D5E97A
:10887000021059405840014301D1002604E04FF056
:10888000FF31A960E96001269DF8000001F00AF9B6
:108890000EB90020F8BD2946012009F019FEF9E7BC
:1088A00070B5044600F0B6F9054607E021462846B3
:1088B00003F096F9284600F0EAF90546002DF5D1B7
:1088C00070BD70B500F0A6F9054612E0284600F02C
:1088D000A7F90646002405E02146284600F089FE57
:1088E000601CC4B2B442F7DB284600F0D0F905465C
:1088F00000BF002DEAD170BD2DE9F04100F08AF9EA
:10890000054614E0284600F08BF90646002407E0EF
:1089100000222146284600F0BFFE0746601CC4B274
:10892000B442F5DB284600F0B2F9054600BF002D41
:10893000E8D1BDE8F08170B50446062600F06AF97A
:1089400005460BE02146284603F04AF90646062E66
:1089500000D005E0284600F09AF90546002DF1D137
:1089600000BF304670BD00002DE9FC4780460F4631
:108970001546404601F059FF0446207D00F00100F5
:1089800010B90820BDE8FC87A069002839D1E06E45
:10899000A8420DD32A463846A16EFEF7C3FDE06E0D
:1089A000401BE066A06E2844A066656700262FE0A5
:1089B000A761E56100BF00BFC246504603F062FAFE
:1089C0008146144903C9CDE900010194E06E80B1EC
:1089D000D4E91A12A069FEF7A5FDE16EE069411A1B
:1089E000E161E16EA0690844A061E06E20670020AB
:1089F000E0666946484600F03FFB064606B9922607
:108A000006E0206A18B927626562922600E0112606
:108A10003046B7E77435030070B50446204601F0D0
:108A200004FF0546686F70BD2DE9FE4F04460E46F3
:108A3000154600BF00BF2746204601F0F6FE8046DF
:108A400098F8140000F00109B9F1000F02D10820D4
:108A5000BDE8FE8F384603F005FA824605F03F0078
:108A600050B90B4A07CA8DE8070000960195694680
:108A7000504600F02FFBEBE70020009001900290A1
:108A8000009601956946504600F024FBE0E700009F
:108A9000683503002DE9F84F0546002715E04FF033
:108AA000000808E000BF3078814600F0FBFA10B102
:108AB0001120BDE8F88F41464A1C02F0FF085046DD
:108AC00000F0B1F8061EEDD100BF39467A1CD7B2CE
:108AD000284600F0BCF8B0F1000AE0D1002712E00F
:108AE0004FF0000805E000BF30788146294600F0CD
:108AF000E0FA41464A1C02F0FF08504600F093F8A5
:108B0000061EF0D100BF39467A1CD7B2284600F0C5
:108B10009EF8B0F1000AE3D1084C03E0206800F0B1
:108B200011F8044620680028F8D125600448006840
:108B300000906946284603F053F8BAE7EC2B002072
:108B40003C3503000146086870472DE9F04F87B0B7
:108B500004460E4691461D46DDF840B000200590C3
:108B6000824601E00AF1010A6068012300222146E1
:108B7000D0F804C005A8E0470028F3D104900027EE
:108B8000804602903FE06068012304AA2146D0F8A5
:108B900004C002A8E0476068012301AA2146D0F87A
:108BA00004C002A8E0479DF80400B0421DD1C845AA
:108BB00017D19DF81000CBF800009DF8100005F8C3
:108BC000010B05F8016B9DF81000831E60682A46B2
:108BD0002146D0F804C002A8E047002007B0BDE855
:108BE000F08F08F1010000F0FF089DF81000831ECF
:108BF000606800222146D0F804C002A8E0479DF832
:108C00001000074400BF5745BDD30520E6E70146E5
:108C1000087870470148006870470000EC2B00207E
:108C20000146087A704702465078884201DC0020ED
:108C30007047907883185818FAE7024650788842AF
:108C400001DC00207047907883185818FAE770B557
:108C500005460C462846FFF7E3FFA04201DC002052
:108C600070BD05F1090604EB44003044F8E7024604
:108C700000BF107A884201DC0020704702F109032E
:108C800001EB41001844F8E701460878704710B539
:108C900004462046FFF756FF006810BD014600BF9E
:108CA00008680068704700000348007808B1012098
:108CB00070470020FCE70000F92B00200148006805
:108CC00070470000F02B002001480068704700004A
:108CD000F42B002010B5002000F0B8F9802000F03F
:108CE000B5F910BD10B5002000F0B6F9802000F0F5
:108CF000B3F910BD2DE9F04180460C4606252078D9
:108D00000B2844D007DC072879D2DFE800F07F0D7C
:108D100011137F3B5B000C283BD00D283ED00E2862
:108D20004BD0852872D123E0032009F0FDFC6EE0D2
:108D300000256CE0384804F0A5FCB8B15C2000BF09
:108D40003649014401220A6000BF00BF00BF00BFD6
:108D5000BFF36F8F00BF00BF00BF00BF00BF00BFE9
:108D6000BFF34F8F00BF00BF00BF00BF00254EE024
:108D700000BF2B4800780646032E02D1042009F0DC
:108D8000D3FC44E0404600F06DF805463FE0002586
:108D90003DE0002009F0C8FC002538E000BF214874
:108DA000006800F0010018B1022009F0BDFC02E0EB
:108DB000012009F0B9FC002529E0012009F0B4FCEC
:108DC000002524E0E078032800D120E0E67816486A
:108DD00007684FB100BF00201349086000BF084674
:108DE00041683046B84700E00E2005465DB909F0FD
:108DF00091FC28B1A07840B907F00DFA05E005E034
:108E000007F004FA01E007F041FA00E000BF00BFFC
:108E10002846BDE8F0810000202C002000700240B0
:108E20001C2C002038040040242C002010B50446DF
:108E3000024908684A682146904710BD7C390020E5
:108E400070B504460D4607F0DBF9A04201D01020B2
:108E500070BD0348D5E9001206C00020F8E7000005
:108E6000242C00202DE9FF410646062405208DF81C
:108E700004000DF1050007F0D3F909F04BFC00BF29
:108E800000203149086000BF9DF8050000F01F0177
:108E900031B1012910D0022929D003293ED138E06F
:108EA00001A9304608F056FF0446062C03D101A85C
:108EB000FFF741FD044632E09DF8097069463846E7
:108EC00000F0C0FB05460DB910240FE001AA9DF883
:108ED0000010284600F084FB0446062C06D101AAA7
:108EE0009DF80010284609F023F8044617E00624F0
:108EF0009DF8095005F00F0020B101A9284600F0A7
:108F00006FF80446062C03D101A808F085FF04463B
:108F100005E001A8FFF70FFD044600E000BF00BF19
:108F20005CB909F0F7FB28B107F06AF938B907F026
:108F300072F904E007F06AF901E007F0A7F92046AA
:108F400004B0BDE8F0810000242C00202DE9FF478B
:108F500006460F461446B6F80680A04501D24046A4
:108F600000E020468146444509D2802006F016FFE5
:108F7000B4FBF0F100FB114008B9012000E0002033
:108F800082460197CDF80890CDF80CA00020009003
:108F9000684600F081FD01A9802000F09BF805469D
:108FA00025B906498020FFF74BFF05469DF80000D4
:108FB00000F078FD284604B0BDE8F087D035030006
:108FC000014609B14020086000487047D0390020B0
:108FD00010B506F053FD10BD10B506F065FD10BDCF
:108FE00070B504460E4604F08000802803D104F0DA
:108FF0000F00092806DB04F0800070B904F00F00B0
:1090000009280ADA204600F00BF8056825B1314638
:10901000284602F0E5FD70BD00BF1020FBE7000010
:10902000014601F08000802805D101F00F020548BB
:1090300000EBC200704701F00F02034800EBC200D2
:10904000F8E70000343900207C39002010B50446D0
:10905000204606F08FFD10BD10B5044604F00F0049
:10906000082805DA204606F0BFFD204606F0E8FE97
:10907000204606F0DFFD10BD70B504460D462046C3
:1090800006F038FE08B9082070BD054800780228AF
:1090900001D00820F8E72946204606F035FEF3E720
:1090A000F82B002010B504462046FFF7B9FF0068F2
:1090B00010BD70B506460C463046FFF7B1FF0546B9
:1090C0002C6014B90020686002E060680068686085
:1090D00070BD000070B504460D46204606F00AFE3D
:1090E00008B9082070BD05480078022801D0082082
:1090F000F8E72946204606F0EDFEF3E7F82B0020BE
:109100002DE9FC47064634462078052820D100BFCB
:109110003C480068C0B2074600BF3A48001F0068DC
:10912000C0B284460020024603464FF0600808EAB9
:10913000421840EA08084FF0800909EAC31948EAD2
:10914000090100BF614502D1052F00D12E4C00BF9F
:10915000207860BBFFF7B8FD07460BE000BF6088D2
:109160003A689168884700BFB8464046FFF7EAFC76
:1091700040680746002FF1D100200090684600F0BB
:109180008BFC2248006810B96088214908800121C1
:109190001E4804F08CFA9DF8000000F083FC0121C9
:1091A000204609F073FE19480068BDE8FC8701A954
:1091B0001848006804F001FA05460DB320682860DD
:1091C00000200090684600F067FC114800880F49B5
:1091D0000968401A401CE88000210C4804F093FA0A
:1091E000A8809DF8000000F05DFC01A90948006816
:1091F00004F00DFA07463946204609F047FE00BF45
:1092000000BFD2E7847402400C350300E42B002039
:10921000E82B0020FC3403002DE9F04104462078BF
:10922000092878D007DC77D2DFE800F08BAEFABFF0
:10923000D7EEED76EC0082282ED008DC0A286CD020
:109240000F286BD0802841D0812865D106E0832883
:1092500055D0842863D08528F7D1F9E09648FFF7E8
:10926000E5FD9548FFF71CFB0D2009F02BFEFFF7ED
:1092700028FBFFF72FFD9149096819B99049097A30
:1092800001B901E0012100E00021084607F004F8DF
:10929000012009F041F80BE1FFF713FB07F056F846
:1092A000002009F039F88748FFF7FAFA8548FFF7F8
:1092B000BDFD0E2009F006FE00BF8348007805467C
:1092C00000F0AEFB08B104F0A3FBF1E000BF7E4864
:1092D0000078052804D0062806D007280CD107E01E
:1092E000022009F019F808E0082009F015F804E058
:1092F000022009F011F800E000BF00BFD8E000BF75
:1093000071480078032805D107F074F810B10420E3
:1093100009F002F8CCE0BCE0C9E0C1E08DE000BF9C
:1093200069480078032805D107F064F810B10420DB
:1093300008F0F2FF07F0D4F810B1062008F0ECFFB7
:10934000B6E000BF60480078032804D000BF5E4844
:109350000078082802D15D48FFF75EFF002009F081
:10936000B1FDFFF7ABFC05460BE02146284602F0B5
:1093700037FC07462E463046FFF7E4FB40680546BB
:1093800000BF002DF1D193E0FFF79BFAFFF7AAFC95
:10939000022008F0C1FF012009F094FD2046FFF7EC
:1093A00045FD2046FFF77CFA82E000BF4648007882
:1093B000082805D1022008F0AFFF06F0B3FE02E056
:1093C000052008F0A9FF032009F07CFD2046FFF7E7
:1093D0002DFD2046FFF764FA6AE0032009F072FDD4
:1093E0003B48FFF723FD3A48FFF75AFA00BF3648DB
:1093F0000078062802D008280CD107E0072008F0E2
:109400008BFF0BE03EE027E01EE009E0022008F0C1
:1094100083FF03E0022008F07FFF00BF00BF47E0AA
:10942000032008F079FF022009F04CFD2046FFF7E9
:1094300037FA2046FFF7FAFC3AE00F2009F042FD28
:109440002046FFF72DFA33E02046FFF7EFFC2FE030
:109450002046FFF7EBFC2BE0A078FFF7E1FD054687
:109460002146D5E90002904758B1A07800F00F00DE
:1094700038B1A07800F00F00082802DAA07806F0D2
:109480009FFC15E0082009F01DFD2046FFF708FAB3
:109490000EE0092009F016FD2046FFF701FA07E06B
:1094A0000A2009F00FFD2046FFF7FAF900E000BF9F
:1094B00000BFBDE8F081000035350300F02B00202F
:1094C000C439002036350300F82B0020373503005F
:1094D0003835030010B504462046FFF711FE10BDD5
:1094E0001CB5002001903548006830B93449354832
:1094F000006804F07EF83149086030480068A0B385
:109500002E4800688088002821DD2C480068C0882B
:10951000B0F5006F03D3002028490968C8802748A8
:109520000068C088ADF8060024480068C088401C68
:1095300022490968C880214800688088401E1F4968
:109540000968888001A8FFF767FE01201CBD1B4841
:109550000068FFF761FE1A491A48006804F03BF8FA
:109560000020164908600120F0E7FFE71648006870
:1095700010B300200090684600F08EFA134800886F
:10958000B0F5006F02D30020104908800F48008812
:10959000ADF806000D480088401C0C4908800121E8
:1095A000094804F0D1F89DF8000000F07BFA01A80A
:1095B000FFF732FE0120C9E70020C7E7082C002092
:1095C000042C0020FC340300E42B0020E82B0020B6
:1095D00010B504460148FFF793FD10BD1C3503008C
:1095E00070B505460E4614462146284602F0F8FAA4
:1095F00070BD2DE9F05F04460E466068C06820B17A
:1096000060683146C268204690472746B0464146CA
:109610003846FFF71CFB814600BF99F801008246DF
:1096200000250AE029464846FFF7FDFA83469BF8E5
:109630000000FFF70BFD681CC5B25545F2DB00BF0B
:10964000BDE8F09F2DE9F04706460D46FFF7E2FA28
:1096500007461DE03846FFF7E3FA8046002410E095
:1096600021463846FFF7F3FA814600BF99F800001B
:10967000B04204D105B12C703846BDE8F087601CBB
:10968000C4B24445ECDB3846FFF701FB074600BF98
:10969000002FDFD10020F0E72DE9FE4F0446894678
:1096A00015464FF0060A6068806830B160682A4647
:1096B00049468368204698478246BAF1060F22D170
:1096C000A346CDE90195029D0DB107201AE0584649
:1096D0000199FFF7BCFA064600BF777800BF4FF04C
:1096E00000080CE041463046FFF79DFA00900099D3
:1096F0000878FFF7B1FC08F1010000F0FF08B84559
:10970000F0DB002082465046BDE8FE8F70B504466F
:109710000D4600266068006928B160682946026924
:10972000204690470646304670BD00002DE9F84FB0
:10973000054608234FF4847236493748006803F021
:1097400028FF044614B10320BDE8F88F334806F023
:10975000EFFC04460CB12046F6E7002030490870C3
:10976000304908603049086048213048FDF7F3FE71
:1097700048212F48FDF7EFFE45B92E492E4BD3E97E
:1097800000209B68C1E901030A6003E0294895E8CD
:109790000E000EC0002004F0C7F9044634B1852C39
:1097A00004D000BF2046FEF7C9FF00BF00BF234E14
:1097B00000BF4FF0000812E04FF0000905E000BFC5
:1097C000387882463146FFF774FC49464A1C02F05D
:1097D000FF095846FFF727FA071EF0D100BF4146A0
:1097E0004A1C02F0FF083046FFF731FAB0F1000BD7
:1097F000E2D11348006800906946304602F0F0F963
:1098000004462CB100BF06F061FE00BF20469BE776
:10981000002099E71C380020FC340300D594020096
:10982000F82B0020EC2B0020F02B002034390020F6
:109830007C390020C439002000350300C035030006
:109840002035030010B5044624B1012C06D0022CAB
:109850000CD107E00748FFF753FC08E00648FFF784
:109860004FFC04E00548FFF74BFC00E000BF00BFE1
:1098700010BD000010350300143503001835030037
:1098800070B506F0ABFC10B106F09EFC08B10820E4
:1098900070BD074804F001FA044600BF254625B113
:1098A00000BF2846FEF74AFF00BF00BF0020EFE7D9
:1098B000243503002DE9F04105460E46164800EB1D
:1098C000850050F82600007838B9134800EB850071
:1098D00050F82600801CBDE8F0810020FFF770FBE7
:1098E000804600240C4800EB850050F8267005E007
:1098F000601CC4B2387828F814007F1C387800281F
:10990000F6D1022000EB4400C0B240F44070A8F849
:1099100000004046DFE70000302C002030B585B065
:109920000A48006880B240F440444FF08050D0F8BC
:10993000A450234606A20D2101A80095FEF750FB76
:1099400001A808F09FFC05B030BD0000A800001081
:109950002530345825303858000000000146C1F346
:10996000411070470146C1F34110704710B507E040
:1099700000BF00BF0948006800F0010000B910BD39
:1099800000BF00BF05480068C0F340000028EFD0CA
:109990000348FFF7B5FB00BFF1E7000038040040C3
:1099A0002835030008B50348006800906846FFF7B3
:1099B000A7FB08BD2C3503002DE9F04105460F46F5
:1099C0002DB900210846FFF775FFBDE8F08100269C
:1099D000002400200BE0104911F81010A94204D116
:1099E0000D4901EB40014C7803E0411CC8B2062848
:1099F000F1D300BF0CB90020E7E700BF074800EB38
:109A0000840050F8260008B90020DEE731462046E1
:109A1000FFF750FFD9E7000034360300302C002058
:109A20000146092918D2DFE801F00507090B0D0FDF
:109A300011131500002070470020FCE70120FAE711
:109A40000020F8E70020F6E70120F4E70120F2E724
:109A50000120F0E70120EEE70020ECE701460929AC
:109A600018D2DFE801F00507090B0D0F11131500DF
:109A7000002070470020FCE70120FAE70020F8E70B
:109A80000020F6E70020F4E70020F2E70020F0E7EE
:109A90000120EEE70020ECE710B50446204607F071
:109AA000E7FD10BD70B5044625460E488068B0B18C
:109AB000ADB9FEF709FB06460A4800680A49086086
:109AC000084840684FF0E021C1F804010020054932
:109AD00088601EB900BF62B600BF00BF00BF00BFF4
:109AE00070BD0000443A002000E100E0F8B50546F2
:109AF0000C4617462088001DB84201D90C20F8BD3D
:109B0000684679DF064600BF304600B1F7E700BF80
:109B10000320218868542088401C20801920218837
:109B200068542088401C208020884119BDF800001E
:109B300008F042FD2188084420800020DFE7000073
:109B4000002114E00C48D0F81024012308E000BFE5
:109B5000D0680079884201D1002303E0D068026810
:109B6000002AF4D100BF0BB108467047491C0A29EE
:109B7000E8DB4FF0FF30F8E7983C00200146102961
:109B800003DBA1F11000C0B2704741F08000FBE799
:109B90002DE9F04104460F46154615B90E20BDE8E3
:109BA000F0810020286000BF0CB90E20F7E700BF4D
:109BB00000BF206808B90E20F1E700BF00BFE088B1
:109BC000C11700EB91718910A0EB810109B1072049
:109BD000E5E700BF384600F0B7FAC6B2142E01D14F
:109BE0000520DCE72079B04201DC0420D7E7E188DA
:109BF000206806FB010028600020D0E72DE9FC4129
:109C0000054688461646002437880020308095F89F
:109C10002D0058B13A463146404600F0ADFA0446B0
:109C200000BF204608B1BDE8FC8100BFA87850B154
:109C30003A4631464046FFF759FF044600BF2046EA
:109C400000B1F0E700BFE87860B1E97848B23B4680
:109C50003246414602F0D1FD044600BF204600B125
:109C6000E1E700BF686868B1696891F900003B46A8
:109C70003246414608F06FFC044600BF204600B162
:109C8000D1E700BF288900280EDD434606220221C5
:109C900005F10800CDE9006709F020F9044600BF8E
:109CA000204600B1BFE700BF288A00280EDD4346EA
:109CB0000722032105F11000CDE9006709F00EF934
:109CC000044600BF204600B1ADE700BF288B002846
:109CD0000EDD43461522142105F11800CDE9006779
:109CE00009F0FCF8044600BF204600B19BE700BF26
:109CF000286A58B13B4632464146286A02F020F8AD
:109D0000044600BF204600B18DE700BF686A58B125
:109D10003B4632464146686A03F076F9044600BF86
:109D2000204600B17FE700BF95F82C0000280BDD2E
:109D30003B4632464146284607F0AEFD044600BF8A
:109D4000204600B16FE700BF287858B13B46324645
:109D50004146284603F014FA044600BF204600B1ED
:109D600061E700BF20465EE7F8B504460E4615469B
:109D7000002000902B466A463146204600F008F845
:109D800007460FB90020F8BDBDF800002044FAE7EF
:109D9000F0B504460D461E4604B10AB90020F0BDD8
:109DA000002103E0605C401C084481B2481CA842CA
:109DB00006DA10888842F5DC481C205CB042F1D1FC
:109DC000A94201DB0020EAE7881C87B2605C10B181
:109DD000605C401E00E0002083B213B1F818A84276
:109DE00001DD0020DBE717801846D8E780F8301047
:109DF000704770B504460D4605B10CB90E2070BD14
:109E000005F1780001F045FF08B90720F7E70020C9
:109E1000A0702C2205F17801201DFDF783FB0020A6
:109E200084F83000D5F8A4006063D5F8A800A063DA
:109E30004FF6FF70A4F8240404F58260C4F82004EF
:109E4000002140F22C40C4F82614A4F82A1401552D
:109E5000207810B9FF2084F8540004F15500C4F8AC
:109E600010042046FEF7B8FB40F21441085304F2F8
:109E7000144204F155012846FFF7C0FE064600BF14
:109E8000304600B1BBE700BF04F231204FF48361DC
:109E900008512046FEF7A0FBA4F81C044FF4836091
:109EA000015904F21C4205F13C00FFF7A7FE0646EB
:109EB00000BF304600B1A2E700BF0121512001558B
:109EC000208B81B248200153012084F83C000021FE
:109ED0002164502001556169616404F13C02002154
:109EE00004F1540072DF064600BF304600B186E739
:109EF00000BF01202070304681E770B504460D4652
:109F00002E462088102804D0112807D026280FD1EB
:109F100009E02146304606F079FC0AE02146304649
:109F200006F023FE05E02146304606F0D3FF00E0B0
:109F300000BF00BF70BD70B504460E46207808B95A
:109F4000082070BDA670002140F22C40C4F82614F1
:109F5000A4F82A140155A07910B1A078012809D0DD
:109F6000E07910B1A078012804D0E07970B1A07830
:109F700002280BD1606B30B1012084F82D04082039
:109F8000616B884702E0002084F82D0431462046AA
:109F9000FEF7EDFAA070606BA0B1A078032802D0A4
:109FA000A07804280ED1607960B194F82E0448B9E5
:109FB000002084F83004012084F82F040720616B0E
:109FC000884702E0002084F82F04182104F13C00A7
:109FD000FDF7C1FA012084F83C0004F12C0007F0E1
:109FE0000FF820B194F82C105120015502E0012106
:109FF0005120015594F8240060B104F1280006F0C6
:10A00000FFFF20B194F828105220015502E00121F1
:10A0100052200155002150200155A078052824D256
:10A02000DFE800F01F030A11180004F13C0120468C
:10A0300007F0AEFC054619E004F13C01204607F0AC
:10A040008FFC054612E004F13C01204607F0B2FC0B
:10A0500005460BE004F13C01204607F0D9FC05461B
:10A0600004E0002084F8310000E000BF00BFA078C9
:10A0700098B104F13C0204F15400D4F8201472DFCA
:10A0800005460DB128465CE794F8301094F854006A
:10A0900073DF05460DB1284653E7606B18B194F89D
:10A0A0003100616B884700204BE700002DE9F0414B
:10A0B000044600BF14B90E20BDE8F08100BF1C2289
:10A0C00021461C48FDF72EFA1B481A4908602068F3
:10A0D00060B120687ADF05460DB12846ECE71648E6
:10A0E00021680A6802604968416005E012487BDF28
:10A0F00005460DB12846DFE7002617E006EB86008F
:10A100000E4901EB800700BF4FF6FF70388000BF9B
:10A110000B4800EB461078600A4A0021381DFEF714
:10A1200023FB05460DB10320C6E7761C002EE5D0C3
:10A130000020C1E764340020742B0020503400203C
:10A1400030340020A126030010B50446204600F05C
:10A1500005F808B1204610BD1420FCE710B50446F0
:10A16000142C01DB002010BD2146024803F06CFADC
:10A17000F9E70000843400202DE9FC4105460C4637
:10A18000174620880930B84202D90C20BDE8FC816E
:10A1900068466DDF064600BF304600B1F6E700BFF7
:10A1A0000820218868542088401C20801B2021889A
:10A1B00068542088401C208020882844DDF8011045
:10A1C0000160BDF8051081802088801D20809DF8E9
:10A1D0000000400818B900202188685402E00120DE
:10A1E000218868542088401C20800020CEE7000091
:10A1F000F0B589B005460F46288823285ED00CDCD0
:10A20000112821D004DC01287BD010287AD10DE060
:10A21000132842D02128F9D125E03B2875D05128B8
:10A2200072D052285CD05628F0D17CE06649674A4B
:10A23000891AC908032242EA014065A104F08AFA9A
:10A24000A88868490880BBE05F49604A891AC90844
:10A25000032242EA014064A104F07CFA4FF6FF7049
:10A2600060490880ACE05849584A891AC908042254
:10A2700042EA014062A104F06DFA00200890A8882B
:10A2800008A98FDF044600BF264626B100BF30462E
:10A29000FEF754FA00BF00BF92E000231A46852162
:10A2A000504800887FDF044600BF264626B100BF25
:10A2B0003046FEF743FA00BF00BF81E00020079060
:10A2C0000890A888002207A990DF044600BF264610
:10A2D00026B100BF3046FEF731FA00BF00BF6FE085
:10A2E00000231A4619463F480088B1DF044600BFE4
:10A2F000264626B100BF3046FEF720FA00BF00BF59
:10A300005EE01EE05BE000E029E0A888132176DF34
:10A31000044600BF264626B100BF3046FEF70EFABF
:10A3200000BF00BF4CE0A888132176DF044600BFC1
:10A33000264626B100BF3046FEF700FA00BF00BF38
:10A340003EE0A888002166DF044600BF264626B10D
:10A3500000BF3046FEF7F2F900BF00BF30E0102228
:10A36000A91D05A8FDF7DEF89DF8140030B39DF88F
:10A370001C00042807D09DF81C00062803D09DF877
:10A380001C0005281AD19DF81400022802D18DF86E
:10A39000040002E001208DF804004FF4C170ADF814
:10A3A0000800A88801A9B0DF044600BF264626B1F0
:10A3B00000BF3046FEF7C2F900BF00BF00E000BF9B
:10A3C00000BF09B0F0BD000094470300044703003C
:10A3D000424C45204E555320636F6E6E6563746525
:10A3E000640000005C2B0020424C45204E55532059
:10A3F000646973636F6E6E6563746564000000006A
:10A400005048592075706461746520726571756576
:10A4100073742E0070B504460D462088102806D0AF
:10A42000112808D012280ED0502810D107E020465D
:10A4300006F07AF90CE0204606F07EFB08E02046A4
:10A4400006F068FD04E0204606F056F900E000BF83
:10A4500000BF70BD2DE9F04104460F46A688208854
:10A46000102806D0112817D019283DD01A2848D115
:10A4700016E006F07BFF304606F054FF20B900BF1F
:10A480000420FEF75BF906E0E07B022803D13146A9
:10A490001D4803F0E8F834E0304606F08BFF30E06A
:10A4A000207A0509042D01DB012000E0002002468E
:10A4B000314615480C3002F091F9032D01DB0120E3
:10A4C00000E00020024631460F48083002F086F9CD
:10A4D000022D01DB012000E00020024631460A483F
:10A4E000001D02F07BF90CE0207A48B9607AC0F3D5
:10A4F000C0052A46314604480C3002F06FF900BF0F
:10A5000000BF00BFBDE8F0818C34002070B58EB074
:10A5100004460E463E4B0FCB09AD0FC500BF14B924
:10A520000E200EB070BD00BF00BF0EB90E20F8E7C0
:10A5300000BF3068A061214609A862DF054600BF60
:10A54000284600B1EDE700BF20788DF836000120E5
:10A55000ADF83400A21C0DA9A8DF054600BF2846AF
:10A5600000B1DEE700BF202101A8FCF7F4FF0220C4
:10A57000ADF8040020788DF80600F420ADF808004E
:10A580000120ADF80A008DF810009DF8110020F0B0
:10A59000080008308DF811009DF8110020F004002B
:10A5A000001D8DF8110001208DF815008DF81600A2
:10A5B000608804F10C0201A901F02EFA05460DB1E4
:10A5C0002846AEE7202101A8FCF7C5FF0320ADF81F
:10A5D000040020788DF80600F420ADF80800012072
:10A5E000ADF80A008DF810009DF8110020F0100061
:10A5F00010308DF8110001208DF815008DF816002F
:10A600008DF817006088221D01A901F005FA88E77E
:10A61000C033030070B504460D4605B104B970BDE2
:10A620002E462088102804D0502807D057280FD154
:10A6300009E02146304606F0AFF80AE021463046F0
:10A6400006F094FC05E02146304606F0CFFB00E022
:10A6500000BF00BF00BFE2E770B50446204607F028
:10A66000A5FF054605F0010070BD38B504F0C8FC33
:10A67000044600BF254625B100BF2846FEF75EF818
:10A6800000BF00BF002000906946012004F0D8FA06
:10A69000044600BF254625B100BF2846FEF74EF808
:10A6A00000BF00BF684604F099FB044600BF254682
:10A6B00025B100BF2846FEF741F800BF00BF38BDF6
:10A6C0002DE9FC4704460D461646A71C4FF001082D
:10A6D0000020019001A8FFF7DFF9304840682860AA
:10A6E0002E4840682D498968411A2D480068401C51
:10A6F000A0EB010915E001212A4802F0D8FF02F081
:10A700009DFB82465146274802F0D1FF234840680E
:10A7100022498968411A22480068401CA0EB0109BF
:10A7200000BF4F45E7D8B8F1000F30D000210091AD
:10A7300076B1009921F00301491C0091009921F0A4
:10A740000401091D0091009964F3891100910DE045
:10A75000009921F00301891C0091009921F0040166
:10A76000091D0091009964F39F5100910B494968BC
:10A770000B4A12681140094A0C3202EB8100009921
:10A7800001600649496839440C3A516000BF9DF8A0
:10A790000400FFF787F94046BDE8FC87983C00209D
:10A7A000E02C0020B440002070B504460D460A2D70
:10A7B00003D10D212046FFF7F7FFA168481CA060D8
:10A7C00020684554D4E90110884202D3204603F0A2
:10A7D000B6FA70BD0448806803494968884201D1CF
:10A7E000012070470020FCE7983C002070B504462B
:10A7F0000D4629466360C869984210D38869206075
:10A80000886918448861086F18440867C869C61ABF
:10A81000CE61C86908B1012070BD0020FCE701F1DC
:10A82000280020608B670020F6E7014608680C309E
:10A83000704770B505460C46284601F007FAA17826
:10A84000884201D1002070BDA07800F080008028EF
:10A850000ED1E07810B1032808D105E00121284687
:10A8600008F022FB0020EEE70020ECE70320EAE7F7
:10A87000A07800F08000A8B9E07820B101280CD0C1
:10A8800003280DD10AE0284600F02EFF06460021DD
:10A89000284608F009FB3046D5E700BF0020D2E784
:10A8A0000320D0E70620CEE770B505460C4600260B
:10A8B00020780F2828D2DFE800F00809191A270DA0
:10A8C0001327271F271B1C1D1E001FE0284600F012
:10A8D000F5FE1BE02146284607F0FCFA064615E087
:10A8E00021462846FFF7A5FF06460FE00EE00DE0E3
:10A8F0000CE00BE00AE009E00321284608F0D4FA56
:10A90000284600F0DBFE01E0062600BF00BF30460F
:10A9100070BD00002DE9FF4106460D4617469846DA
:10A9200000BF287AFE49087000BF00BF2C46009780
:10A9300000200190CDF8088003960398006840F24B
:10A940004632811A90427CD057DCB0F54A7F79D0EC
:10A9500028DCB0F5467F76D012DC40F21532A0EB51
:10A960000201904270D006DC90B3A0F2133080B3A5
:10A9700001286AD1B3E0012968D00229F9D106E1A2
:10A9800040F22132811A904273D006DCA0F21930D5
:10A9900000286FD00128ECD14AE101296BD00629AB
:10A9A000E7D1A4E140F23632811A904275D016DC2C
:10A9B00040F22F32A0EB020190426FD00ADCA0F2ED
:10A9C000293000286BD004286AD00528D1D10AE2AA
:10A9D00052E066E005297DD00629CAD15BE2C81F96
:10A9E000092832D2DFE810F08D0231003100310049
:10A9F0003100AF02CA02E502000313296BD015DC57
:10AA0000A1F103001028ECD2DFE810F02503400389
:10AA10005B03760394031F001F00AF03CA03E50323
:10AA200000041F001F0021043C045804372971D082
:10AA300012DC29296FD00ADC14296DD0282998D17D
:10AA4000FEE3EDE275E1BDE067E0FAE384E02D2985
:10AA50007ED032298DD1F5E344297AD004DC3E2919
:10AA600078D03F2985D1EEE3492974D0542985D186
:10AA7000EAE3FCE0C1E015E100BF0820039908719A
:10AA8000DDE9010188420DD300BF40F21330039984
:10AA90000860012004B0BDE8F08117E2BEE165E185
:10AAA00086E100BF009820B103980079DDE900122B
:10AAB00088540198401C019000BF00BF0B200399EF
:10AAC0000871DDE9010188420AD300BF4FF44570E7
:10AAD000039901E0C4E1F0E308600120DAE700BF78
:10AAE000009820B103980079DDE90012885401989C
:10AAF000401C019000BF00BF207D03990871DDE973
:10AB0000010188420AD300BF40F215300399086062
:10AB10000120BFE7FEE3FEE3FEE300BF009820B1A3
:10AB200003980079DDE9001288540198401C0190D7
:10AB300000BF00BF022003990871DDE901018842CE
:10AB40000BD300BF40F21630039908600120A1E743
:10AB5000FAE3FAE3FAE3FAE300BF009820B10398BE
:10AB60000079DDE9001288540198401C019000BF73
:10AB700000BF022003990871DDE90101884207D373
:10AB800000BF40F2173003990860012082E700BF40
:10AB9000009820B103980079DDE9001288540198EB
:10ABA000401C019000BF00BF022003990871DDE93D
:10ABB0000101884207D300BF4FF446700399086033
:10ABC000012067E700BF009820B103980079DDE914
:10ABD000001288540198401C019000BF00BF607EA5
:10ABE00003990871DDE90101884207D300BF40F2F3
:10ABF00019300399086001204CE700BF009820B18C
:10AC000003980079DDE9001288540198401C0190F6
:10AC100000BF00BF002003990871DDE901018842EF
:10AC200007D300BF40F21A3003990860012031E7D2
:10AC300000BF009820B103980079DDE90012885424
:10AC40000198401C019000BF002036490870FDE3C8
:10AC500000BF092003990871DDE90101884207D38B
:10AC600000BF40F2213003990860012012E700BFC5
:10AC7000009820B103980079DDE90012885401980A
:10AC8000401C019000BF00BF042003990871DDE95A
:10AC90000101884207D300BF40F2223003990860C7
:10ACA0000120F7E600BF009820B103980079DDE9A4
:10ACB000001288540198401C019000BF1948017887
:10ACC0002846FDF7D4FF1849086000BF0846006811
:10ACD000FDF7DAFF03990871DDE90101884207D326
:10ACE00000BF40F22730039908600120D2E600BF80
:10ACF000009820B103980079DDE90012885401988A
:10AD0000401C019000BF00BF002003990871DDE9DD
:10AD1000010188420ED300BF4FF44A70039905E049
:10AD20000C2C00200D2C0020102C0020086001208D
:10AD3000B0E600BF009820B103980079DDE9001269
:10AD400088540198401C019000BF00BFF849086872
:10AD5000417803980171DDE90101884207D300BF02
:10AD600040F2293003990860012093E600BF009863
:10AD700020B103980079DDE9001288540198401C45
:10AD8000019000BFEA480068FDF77EFF217D884200
:10AD900050D100BF022003990871DDE9010188420A
:10ADA00007D300BF40F22D3003990860012071E6FF
:10ADB00000BF009820B103980079DDE900128854A3
:10ADC0000198401C019000BF00BF02200399087148
:10ADD000DDE90101884207D300BF40F22E3003991C
:10ADE0000860012056E600BF009820B10398007962
:10ADF000DDE9001288540198401C019000BF00BF9B
:10AE0000607E03990871DDE90101884207D300BF24
:10AE100040F22F300399086001203BE600BF009804
:10AE200020B103980079DDE9001288540198401C94
:10AE3000019057E0BE480068FDF726FFA17D8842DB
:10AE400050D100BF0A2003990871DDE90101884251
:10AE500007D300BF4FF44D7003990860012019E635
:10AE600000BF009820B103980079DDE900128854F2
:10AE70000198401C019000BF00BF00200399087199
:10AE8000DDE90101884207D300BF40F23530039964
:10AE900008600120FEE500BF009820B1039800790A
:10AEA000DDE9001288540198401C019000BF00BFEA
:10AEB000002003990871DDE90101884207D300BF32
:10AEC00040F23630039908600120E3E500BF0098A6
:10AED00020B103980079DDE9001288540198401CE4
:10AEE000019000BF00BF002003990871DDE9010156
:10AEF000884207D300BF40F23D300399086001202B
:10AF0000C8E500BF009820B103980079DDE9001280
:10AF100088540198401C019000BF85480068FDF7E7
:10AF2000B3FE217D88427AD100BF052003990871C4
:10AF3000DDE90101884207D300BF40F242300399A6
:10AF400008600120A6E500BF009820B103980079B1
:10AF5000DDE9001288540198401C019000BF00BF39
:10AF6000242003990871DDE90101884207D300BF5D
:10AF700040F243300399086001208BE500BF009840
:10AF800020B103980079DDE9001288540198401C33
:10AF9000019000BF00BF002003990871DDE90101A5
:10AFA000884207D300BF4FF4517003990860012015
:10AFB00070E500BF009820B103980079DDE9001228
:10AFC00088540198401C019000BF00BF10200399D5
:10AFD0000871DDE90101884207D300BF40F2453026
:10AFE00003990860012055E500BF009820B103983F
:10AFF0000079DDE9001288540198401C019000BFDF
:10B0000000BF012003990871DDE90101884208D3DE
:10B0100000BF40F246300399086001203AE597E10D
:10B0200000BF009820B103980079DDE90012885430
:10B030000198401C019000BF00BF052003990871D2
:10B04000DDE90101884207D300BF40F2493003998E
:10B05000086001201EE500BF009820B10398007928
:10B06000DDE9001288540198401C019000BF00BF28
:10B07000242003990871DDE90101884207D300BF4C
:10B0800040F24A3003990860012003E500BF0098B0
:10B0900020B103980079DDE9001288540198401C22
:10B0A000019000BF00BF012003990871DDE9010193
:10B0B000884207D300BF40F24B300399086001205B
:10B0C000E8E400BF009820B103980079DDE90012A0
:10B0D00088540198401C019000BF00BF03200399D1
:10B0E0000871DDE90101884207D300BF4FF45370B6
:10B0F000039908600120CDE400BF009820B10398B7
:10B100000079DDE9001288540198401C019000BFCD
:10B1100000BFA07D03990871DDE9010188420AD3CF
:10B1200000BF40F24D30039908600120B2E40000F6
:10B13000102C002000BF009820B103980079DDE9B1
:10B14000001288540198401C019000BF00BF0420E9
:10B1500003990871DDE90101884207D300BF4FF46C
:10B16000547003990860012094E400BF009820B156
:10B1700003980079DDE9001288540198401C019081
:10B1800000BF00BF242003990871DDE90101884256
:10B1900007D300BF40F2513003990860012079E4E1
:10B1A00000BF009820B103980079DDE900128854AF
:10B1B0000198401C019000BF00BF02200399087154
:10B1C000DDE90101884207D300BF40F25230039904
:10B1D000086001205EE400BF009820B10398007968
:10B1E000DDE9001288540198401C019000BF00BFA7
:10B1F000022003990871DDE90101884207D300BFED
:10B2000040F2533003990860012043E400BF0098E6
:10B2100020B103980079DDE9001288540198401CA0
:10B22000019000BF00BF052003990871DDE901010D
:10B2300088420DD300BF40F256300399086004E005
:10B24000A2E0D0E105E15CE1CBE1012022E400BF16
:10B25000009820B103980079DDE900128854019824
:10B26000401C019000BF00BF242003990871DDE954
:10B270000101884207D300BF40F2573003990860AC
:10B28000012007E400BF009820B103980079DDE9B0
:10B29000001288540198401C019000BF00BF062096
:10B2A00003990871DDE90101884208D300BF4FF41A
:10B2B000567003990860012010E41AE000BF00985E
:10B2C00020B103980079DDE9001288540198401CF0
:10B2D000019000BF00BF207D03990871DDE90101E5
:10B2E000884207D300BF40F259300399086001201B
:10B2F0000FE400BF009820B103980079DDE9001247
:10B3000088540198401C019000BF00BFA07D0399A4
:10B31000087102E0BFE052E00AE0DDE90101884285
:10B3200007D300BF40F25A300399086001200EE4B1
:10B3300000BF009820B103980079DDE9001288541D
:10B340000198401C019007E05FE0FDE0BEE01DE1D8
:10B35000A8480068FDF798FCA64908684178A64807
:10B3600001700020A549087021E100BF0720039962
:10B370000871DDE90101884207D300BF40F26E3059
:10B380000399086001201CE400BF009820B10398D5
:10B390000079DDE9001288540198401C019000BF3B
:10B3A00000BF052003990871DDE90101884207D338
:10B3B00000BF40F26F300399086001201CE400BF19
:10B3C000009820B103980079DDE9001288540198B3
:10B3D000401C019000BF8948017886480068FDF74D
:10B3E0002CFC8749086000BF08460068FDF70FFC89
:10B3F00003990871DDE90101884207D300BF40F2DB
:10B40000733003990860012011E400BF009820B157
:10B4100003980079DDE9001288540198401C0190DE
:10B4200000BF74480068FDF72FFC217D88421CD1C5
:10B4300000BF032003990871DDE90101884209D3A7
:10B4400000BF4FF45E700399086000E0BBE001208C
:10B450000CE400BF009820B103980079DDE90012E8
:10B4600088540198401C019021E062480068FDF773
:10B470000BFCA17D88421AD100BF022003990871FC
:10B48000DDE90101884207D300BF40F27D30039916
:10B490000860012005E400BF009820B103980079FE
:10B4A000DDE9001288540198401C019000BF00BFE4
:10B4B000402003990871DDE90101884207D300BFEC
:10B4C0004FF461700399086001200FE400BF0098F9
:10B4D00020B103980079DDE9001288540198401CDE
:10B4E000019000BF00BF002003990871DDE9010150
:10B4F000884207D300BF40F28530039908600120DD
:10B5000016E400BF009820B103980079DDE900122D
:10B5100088540198401C019000BF36480068FDF730
:10B52000B3FB217D88421BD100BF206A00780399BC
:10B530000871DDE90101884207D300BF40F28A307B
:10B5400003990860012010E400BF009820B103981F
:10B550000079DDE9001288540198401C019021E037
:10B5600024480068FDF790FBA17D88421AD100BFF6
:10B57000002003990871DDE90101884207D300BF6B
:10B5800040F28F3003990860012010E400BF00985A
:10B5900020B103980079DDE9001288540198401C1D
:10B5A000019000BF15480078401C144908701348EA
:10B5B0000078114909788842FFF6D7AE1148007823
:10B5C000401C104908700F4800780F4909788842DC
:10B5D000FFF63EAB00BF40F29A30039908600120AD
:10B5E0001BE400BF00BF00BF00200399086000BF3C
:10B5F00013E40000102C0020142C0020152C002037
:10B60000182C00200D2C00200C2C00202DE9F041DE
:10B6100005460E4615B10320BDE8F0813746384691
:10B62000FFF703F904462078202807D1D4F8020058
:10B63000E060E0882082207AA07401E00620EBE739
:10B6400000BF0020E8E700002DE9F04186B0044685
:10B650000E4600BF00BF27463846FFF7E6F805460E
:10B66000B0782870F07968700020039004900590FD
:10B67000A81C0390687804900020029002A8FEF7AE
:10B680000BFA03A90020FDF725FD8046B8F1000F55
:10B690000AD1094903C9CDE9000101976946002093
:10B6A000FDF7CEFB804600BF9DF80800FEF7FAF9D3
:10B6B000404606B0BDE8F0815835030070B5054638
:10B6C00000BF00BF2E463046FFF7AFF8044600200B
:10B6D000A082A06100212162E06620676067A06708
:10B6E00004F12800A06670BD2DE9FC47074600BFA5
:10B6F00000BFB8464046FFF798F80446384600F0C9
:10B70000C1FB81463F4903C9CDE900010194E069CD
:10B71000A8B9206F606700202067E066206A58B1F2
:10B72000D4E90801C4E906010021216269464846BE
:10B73000FDF7A2FCBDE8FC870020A061FAE7A66F38
:10B740003546E069B04200D2E5692A4604F1280195
:10B75000A069FBF7E7FE206F2844606700202067A0
:10B76000701BE06604F128002844A066206A0028C7
:10B770003DD0D4E90801C4E906010021216232E08C
:10B78000E16EE06981421ED3D4E90602A16EFBF7A7
:10B79000C9FEE16EE069081AE066A16EE06908443E
:10B7A000A066E06960670021384607F07DFB206AEB
:10B7B00030B1D4E90801C4E906010021216212E098
:10B7C0000020A06112E0D4E91A12A069FBF7AAFEDA
:10B7D000E06E2067E16EE069411AE161E16EA06907
:10B7E0000844A06102E0E06E0028C9D101E0002019
:10B7F000A061A06920B169464846FDF73DFC99E784
:10B80000002097E76035030030B504460D46294611
:10B810006360C869984204D3886920600B67CB6174
:10B8200003E001F1280020608B67002030BD00009C
:10B830002DE9F04104460E4600BF00BFA046002E91
:10B8400031D0012E2ED0022E02D0032E7DD11EE04B
:10B8500001224B494B48FDF787F805464A480068E6
:10B86000FCF7FBFF054600BF2F4627B100BF384657
:10B87000FCF764FF00BF00BF4449454A891AC90864
:10B88000032242EA014043A102F064FF74E03F4911
:10B890003F4A891AC908032242EA014042A102F044
:10B8A00059FF69E068E0FBF709FF44480078401C55
:10B8B0004249087000BF41480078401E3049085C8A
:10B8C0000A280BD03D480078401E085C0D2805D0A2
:10B8D0003A4800783A490988884224DB374800789A
:10B8E00001281DDD00212648344A12788154274959
:10B8F000274A891AC908042242EA014031A102F00C
:10B9000029FF2249224A891AC908042242EA014031
:10B910002A490A781A4902F0A7FE194807F070FB75
:10B920000020264908704046FDF776F8074623496F
:10B930000978491E124A535C1449154A891AC908E4
:10B94000042242EA01403A4600E014E025A102F058
:10B9500017FF0B48194A1278811801220948FDF790
:10B9600003F8054625B915480078401C13490870AE
:10B97000002DA0D000E000BF00BFBDE8F0810000B6
:10B98000402D00203433030030330300944703007C
:10B99000044703004344432041434D20706F7274B9
:10B9A000206F70656E6564004344432041434D2021
:10B9B000706F727420636C6F73656400662B002077
:10B9C0005E2B0020526561647920746F2073656E70
:10B9D000642064617461206F76657220424C45205A
:10B9E0004E55530052583A2073697A653A20256CB7
:10B9F0007520636861723A202563000001460248A1
:10BA000050F8210070470000103500200146014821
:10BA1000405670474035002070B590B006460C4641
:10BA20001546A07818B901208DF80E0002E0A07824
:10BA30008DF80E002088ADF80C0000200290607C8C
:10BA400002A906F013F8A07C0DF1090106F00EF82A
:10BA5000E07B08B1012000E000209DF80A1060F3AF
:10BA6000C3018DF80A10207C08B1012000E00020FD
:10BA70009DF80A1060F304118DF80A10207B08B1BC
:10BA8000012000E000209DF80A1060F300018DF80D
:10BA90000A10207D08B1022000E001209DF80A1064
:10BAA00060F342018DF80A101C2109A8FBF753FD31
:10BAB000607BC0F3001018B9607BC0F34010F8B190
:10BAC00000200090E07C0DF1010105F0CFFF00BFE8
:10BAD0009DF8000020F00F00401C8DF800009DF83C
:10BAE000000020F0F00010308DF8000000BF9DF83D
:10BAF000020020F00600801C8DF80200CDF838D03E
:10BB0000607B8DF82400A07B8DF82500142104A80B
:10BB1000FBF721FD03A8049002A80590A088ADF8CA
:10BB20001C00A06820B1E088ADF81800A06808905B
:10BB3000A069002849D000200190A0690088ADF8D4
:10BB40002C00A0694088ADF82E00A06940680A90DA
:10BB500001A80D90A169087B01A905F087FFA169E3
:10BB6000487B0DF1050105F081FFA069807A08B1DD
:10BB7000012000E000209DF8061060F3C3018DF85D
:10BB80000610A069C07A08B1012000E000209DF8ED
:10BB9000061060F304118DF80610A069007A08B150
:10BBA000012000E000209DF8061060F300018DF8F0
:10BBB0000610A069807B08B1022000E001209DF8FA
:10BBC000061060F342018DF80610E06908B1E069E3
:10BBD0000C902B4604AA09A93046AADF10B070BD0C
:10BBE00070B504460D4660682946026820469047B5
:10BBF00070BD000070B505460DB9094C01E0084C58
:10BC0000083409E0204601F0C2F8064606B904E00F
:10BC100028467168884700BFF4E700BF70BD000088
:10BC20000435002010B504462CB90120064948709F
:10BC30000020FFF7DFFF012C04D1012002498870AA
:10BC4000FFF7D8FF10BD0000FC34002070B504469B
:10BC500000212046FDF70BF8054600212846FCF799
:10BC6000ECFF06463046FCF7D2FF70BD2DE9F047E9
:10BC7000024613468C46D3E90245DCE90267B6EB7F
:10BC8000040877EB050002D30120BDE8F08700200F
:10BC9000FBE701468878012805D191F820000128AA
:10BCA00001D1002070470120FCE733B58BB0054679
:10BCB000002000900C9878B100240BE021460CA8DD
:10BCC00001F0C2FC28B1009A501C009001A820F895
:10BCD0001240641C142CF1D32C2269462846FBF731
:10BCE00021FC0DB030BD01460888062808DB088815
:10BCF000B0F5486F06DD08884FF6FF72904201D01C
:10BD0000072070474888062808DB4888B0F5486F48
:10BD100006DD48884FF6FF72904201D00720F0E719
:10BD200008884FF6FF72904208D04888904205D0AC
:10BD300008884A88904201DD0720E2E70020E0E71A
:10BD40002DE9F04107460D46144698462088801D8F
:10BD5000404502D90C20BDE8F0813846FFF7C3FF0B
:10BD6000064600BF304600B1F5E700BF0520218838
:10BD700068542088401C2080122021886854208824
:10BD8000401C208022885119388806F015FC218833
:10BD90000844208022885119788806F00DFC2188FB
:10BDA000084420800020D6E710B5044600BF204696
:10BDB000FCF7C4FC00BF10BD30B587B01C2168463D
:10BDC000FBF7C9FB002000904FF4A03001904FF426
:10BDD000F020029003208DF80C000020ADF80E003A
:10BDE00001208DF810000020059008480690684654
:10BDF000FEF75CF9044600BF254625B100BF284682
:10BE0000FCF79CFC00BF00BF07B030BDA9BD02001D
:10BE1000F8B505460C46607A88B9207A10B9104802
:10BE2000476801E00E4887682A4639466068FCF793
:10BE3000E5FC064616B1304605F0CEFC0EE00020CB
:10BE400020720748406948B101208DF80000ADF824
:10BE50000250034841696846884700BFF8BD0000AA
:10BE60006434002070B5044601212046FCF7FFFE33
:10BE7000054600212846FCF7E0FE06463046FCF762
:10BE8000C6FE70BD70B5044601212046FCF7EFFEEA
:10BE9000054601212846FCF7D0FE06463046FCF751
:10BEA000B6FE70BD2DE9FF4105460C4629492A4AD8
:10BEB000891AC908042242EA01402B46224627A1DA
:10BEC00002F05EFC002002900390ADF80840ADF84F
:10BED0000A40009001906A4602A9284690DF064673
:10BEE000002E32D0304603F0BBF9074619491A4AF2
:10BEF000891AC908012242EA01403B462A462349E1
:10BF000002F03EFCBDF8000010B9BDF8020068B1B7
:10BF1000BDF80230BDF800200E490F4FC91BC908FB
:10BF2000012747EA01401AA102F02AFCBDF80400EB
:10BF300058B1BDF804200749074BC91AC9080123A5
:10BF400043EA0140224902F00FFC304604B0BDE84C
:10BF5000F08100000447030004470300557064614A
:10BF600074696E672064617461206C656E677468C3
:10BF700020746F202575206F6E20636F6E6E656371
:10BF800074696F6E20307825782E0000B839030070
:10BF900054686520726571756573746564205458C2
:10BFA0002F5258207061636B6574206C656E6774E6
:10BFB0006820697320746F6F206C6F6E67206279E0
:10BFC0002025752F2575206F63746574732E00000E
:10BFD000043A030010B50021034801F094FB044625
:10BFE00084F3100010BD0000B440002070B5054679
:10BFF0000C464FF4803000FA04F1284600F0C6FBEE
:10C0000070BD70B505460C464FF4A07000EB84007F
:10C0100086B23146284600F0D3FB70BD2DE9F047CB
:10C0200004460D4616461F464FF4803000FA05F8C8
:10C030004FF4A07000EB85001FFA80F926F07F46D0
:10C040004146206802F0E6FD4146206802F0DCFD32
:10C050004946206802F0D1FD32462946206802F0A8
:10C06000C3FD4146206802F0D2FD1FB14146206861
:10C0700002F0D3FDBDE8F08710B50446206802F059
:10C08000B8FD10BD2DE9F04704460D46174660790E
:10C09000324941F820706079314901EBC0000079E4
:10C0A00068B108262F49304A891AC908022242EA93
:10C0B00001402EA102F04EFB3046BDE8F0872988F2
:10C0C0002068C0F8081500BF94F90420AB7810462A
:10C0D0001946002808DB4FEA417C4FEA1C68DFF86C
:10C0E000B0C00CF800800BE04FEA417C4FEA1C69BD
:10C0F000DFF8A0C000F00F08A8F104080CF80890C1
:10C1000000BF00BF94F90410084600280DDB00BFF3
:10C1100000BF00F01F0301229A4043099B0003F176
:10C12000E023C3F8002100BF00BF00BF00BF012013
:10C1300061790B4A02EBC10108716079114641F83F
:10C14000304000260749084A891AC908032242EAF2
:10C15000014011A102F0FEFA3046AEE7482C002063
:10C160004C2C002054470300044703005254432042
:10C17000696E7374616E636520616C726561647968
:10C1800020696E697469616C697A65642E000000CB
:10C1900000E400E018ED00E05254433A20696E6973
:10C1A0007469616C697A65642E00000010B50146FF
:10C1B00091F90400002807DB00F01F0301229A40D8
:10C1C000024B440943F8242000BF10BD00E200E008
:10C1D00070B505460C4622460221284600F0E2FAD8
:10C1E00070BD10B504464FF48271204600F0E8FAA5
:10C1F00010BD10B504460021206802F011FD10BDED
:10C2000010B504460421206802F00AFD10BD2DE996
:10C21000F84F04468846154699464FF4803000FA98
:10C2200008FA4FF4A07000EB88001FFA80FB25F09D
:10C230007F455146204600F0A9FA206802F0D9FC5B
:10C2400006464146206802F0C9FC0090324641464D
:10C25000206802F0C9FC5946206802F0CEFC314645
:10C26000009806F089F8012806D1102003F07EFA24
:10C270005946206802F0C1FC206802F0BAFC06466C
:10C280003146284606F078F807465146206802F005
:10C29000BEFC012F0FD16A1C4146206802F0A4FCAD
:10C2A000102003F063FA206802F0A3FCB04225D00E
:10C2B0000D20BDE8F88F2A464146206802F094FC24
:10C2C000206802F096FC0646681E314606F054F8D7
:10C2D00007466FF07F40A0EB0900B84201D20D2065
:10C2E000E7E75FB96A1C4146206802F07DFC2068E0
:10C2F00002F07FFCB04201D00D20DAE70122514666
:10C30000204600F04FFA0020D3E7014601F08000FC
:10C31000802801D1002000E0102001F00F0210441D
:10C32000C0B27047014601F08000802801D1044866
:10C3300001E00348903801F00F0200EB0210704753
:10C340000C3600202DE9F84305460E461746984660
:10C3500069461048006801F030F9044614B9042019
:10C36000BDE8F8831C212046FBF7F5F80120207179
:10C370002560C4F8088008480068B6FBF0F0E0606B
:10C38000676169460348006801F041F904F0A6FFBF
:10C390000020E5E7A03703009437030010B50446FA
:10C3A000D4E90321501828DF10BD10B502F07CFF3E
:10C3B00010BD10B5812003F027F810BD10B5822004
:10C3C00003F022F810BD10B5832003F01DF810BD56
:10C3D00010B5842003F018F810BD10B5852003F0C7
:10C3E00013F810BD10B5862003F00EF810BD10B57F
:10C3F000872003F009F810BD10B5882003F02AF853
:10C4000010BD10B502F076FF10BD10B5012003F08D
:10C4100055F810BD10B5022003F050F810BD10B54E
:10C42000032003F04BF810BD10B5042003F046F8CC
:10C4300010BD10B5052003F041F810BD10B5062061
:10C4400003F03CF810BD10B5072003F037F810BD1D
:10C45000F8B5082406F006FA2046FFF763FF054604
:10C46000A87B032815D0286898B92046FFF74DFF10
:10C4700001218140CE433146074803F0DDF80748EB
:10C48000006800908DF802406846054909688847B1
:10C4900000BF00BFF8BD0000B42B0020C83403006B
:10C4A000A82B002070B500BF00BF184909680846D6
:10C4B0000146164A116000BF00BF00BF00BF00BFA9
:10C4C000BFF36F8F00BF00BF00BF00BF00BF00BF42
:10C4D000BFF34F8F00BF00BF00BF00BF04460FE097
:10C4E00094FAA4F0B0FA80F52846FDF747FB06461B
:10C4F0000120A84084432946304606F0B9FB00BF1E
:10C50000002CEDD106F0C4F970BD00006C7402403F
:10C5100010B505480078FFF7F8FE044621460248AA
:10C52000007806F0A5FB10BDAD2B0020F8B500BFCC
:10C5300021480068C0B2044620480078FFF7E5FEB5
:10C54000012101FA00F01E490988C94389B21D4A38
:10C5500012681143084018B11848007806F0BCFA78
:10C5600004F0800008B9002000E080201349087022
:10C570000020FFF7CAFE012686408020FFF7C5FE97
:10C58000012181400E43F54329460E4803F054F83B
:10C590008020FFF7BAFE012101FA00F0084909687E
:10C5A0000843074908600848006800906846074942
:10C5B00009688847F8BD000080740240AD2B002058
:10C5C000B02B0020B42B0020D4340300A82B002073
:10C5D00038B50020009000BF1648006880B2ADF862
:10C5E00002008820FFF791FE012101FA00F400BF4C
:10C5F00010496039086810B94FF0FF3005E000F4C9
:10C600008031B1F5803F00D1002000BF401C30B127
:10C610000820FFF77AFE012101FA00F004430648E2
:10C62000006820430449086068460449096888474F
:10C6300038BD000020750240B02B0020A82B002040
:10C640007047000038B500BF02F0B2FF054628462B
:10C6500002F098FF00BF00BF00BF00BFBFF36F8FA5
:10C6600000BF00BF00BF00BF00BF00BFBFF34F8FC0
:10C6700000BF00BF00BF2C4604F4807050B1012001
:10C6800019490870194800680090684618490968F7
:10C69000884700BF04F4007058B1002012490870A8
:10C6A0001248001D006800906846114909688847D3
:10C6B00000BF04F48060A8B10B48007890B100205E
:10C6C0000949087001200B49086000BF582002F09A
:10C6D00091FF0648083000680090684604490968E0
:10C6E000884700BF38BD0000AC2B0020D8340300C1
:10C6F000A82B00200875024008B5002005490870E5
:10C7000005490870054800680090684604490968B2
:10C71000884708BDAC2B0020AD2B0020B8340300A7
:10C72000A82B002030B587B004460D4620688068ED
:10C7300008B907B030BD182101A8FAF70CFF02951F
:10C74000A0680690207910B1012815D109E00120D8
:10C750008DF8040020690390E068049060690590FA
:10C760000BE002208DF804000749E068096848439F
:10C7700003906069059000E000BF00BF20688168F9
:10C7800001A8884700BFD4E79437030070B504467A
:10C790000D462946206802F037FA2946206802F043
:10C7A00039FA70BD70B504460E461546314620680C
:10C7B00002F02DFA1DB13146206802F02EFA70BD4C
:10C7C00070B505460C462868015929B121462868EC
:10C7D00002F013FA012070BD0020FCE770B5054699
:10C7E0000E46144624B13146284600F03CFF03E0D3
:10C7F0003146284600F019FF70BD30B50446108858
:10C80000C01C984201D90C2030BD02201588485523
:10C810001088401C10800120158848551088401C45
:10C82000108015884C551088401C10800020EBE7C4
:10C8300070B504460D4640F21442115B0122D4F853
:10C840001004FDF791FA064606B1357004F13C027A
:10C8500004F5826104F1540072DF70BD70B50446C6
:10C86000606850B11749184A891AC908032242EA78
:10C870000140164901F06EFF70BD2078012802D0FA
:10C8800002281AD10CE00F490F4D491BC908032596
:10C8900045EA01400EA1A368226901F071FF0DE095
:10C8A0000849094D491BC908032545EA014015A15E
:10C8B000A368226901F064FF00E000BF00BF00BF71
:10C8C000DAE7000094470300044703002C39030013
:10C8D0002D2D3E204576656E742072656365697600
:10C8E00065643A2077726F746520256420627974DC
:10C8F000657320617420616464726573732030789D
:10C9000025782E002D2D3E204576656E74207265AB
:10C910006365697665643A20657261736564202594
:10C920006420706167652066726F6D206164647257
:10C9300065737320307825782E0000003EB500BF67
:10C940009DF8000020F00F00401C00909DF80000B2
:10C9500020F0F0001030009000BF142214A16846AF
:10C960007CDF044600BF254625B100BF2846FBF703
:10C97000E5FE00BF00BF0020019002901020ADF83E
:10C9800004003C20ADF806000020ADF808004FF48C
:10C99000C870ADF80A0001A87ADF044600BF25463A
:10C9A00025B100BF2846FBF7C9FE00BF00BF3EBD52
:10C9B0004E6F726469635F555342445F424C455FFA
:10C9C000554152540000000070B505460C46608881
:10C9D00013490988884215D1208840F6772188427A
:10C9E00010D1A088C01E0F4908800F490F4A891A2C
:10C9F000C908032242EA01400A490B880A880CA1AF
:10CA000001F0BEFE2B886A880749084E891BC908B9
:10CA1000042646EA01400DA101F0B2FE70BD0000FF
:10CA20005C2B00205E2B002094470300044703008A
:10CA300044617461206C656E206973207365742095
:10CA4000746F2030782558282564290041545420DB
:10CA50004D54552065786368616E676520636F6D1E
:10CA6000706C657465642E2063656E7472616C20F1
:10CA700030782578207065726970686572616C2005
:10CA8000307825780000000070B50E490E4800F09F
:10CA9000EDFE044600BF254625B100BF2846FBF742
:10CAA0004DFE00BF00BF4021074800F0D0FE044605
:10CAB00000BF254625B100BF2846FBF73FFE00BF5B
:10CAC00000BF70BDC9C90200BC2E002070B50B4864
:10CAD000FFF7D2FA0A4B0CCB841843F10005094941
